:020000040800F2
:10000000600602207D0200088502000887020008C1
:10001000890200088B0200088D0200080000000021
:100020000000000000000000000000008F02000837
:1000300091020008000000009302000895020008E9
:10004000970200089702000897020008970200082C
:10005000970200089702000897020008970200081C
:10006000970200089702000897020008970200080C
:1000700097020008970200089702000897020008FC
:1000800097020008970200089702000897020008EC
:1000900097020008970200089702000897020008DC
:1000A00097020008970200089702000897020008CC
:1000B00097020008970200089702000897020008BC
:1000C00097020008970200089702000897020008AC
:1000D000970200089702000897020008970200089C
:1000E000970200089702000897020008970200088C
:1000F000970200089702000897020008970200087C
:10010000970200089702000897020008970200086B
:10011000970200089702000897020008970200085B
:10012000970200089702000897020008970200084B
:10013000970200089702000897020008970200083B
:10014000970200089702000897020008970200082B
:10015000970200089702000897020008970200081B
:10016000970200089702000897020008970200080B
:10017000970200089702000897020008000000009C
:1001800097020008970200089702000897020008EB
:1001900097020008970200089702000897020008DB
:1001A00097020008970200089702000897020008CB
:1001B00097020008970200089702000897020008BB
:1001C000970200089702000800000000970200084C
:1001D000970200089702000897020008970200089B
:1001E000970200089702000897020008970200088B
:1001F000970200089702000800F002F800F02EF8BD
:100200000AA090E8000C82448344AAF10107DA4571
:1002100001D100F023F8AFF2090EBAE80F0013F095
:10022000010F18BFFB1A43F00103184758020000E2
:10023000680200000023002400250026103A28BF91
:1002400078C1FBD8520728BF30C148BF0B60704748
:100250001FB500F009F91FBD10B510BD00F031F851
:100260001146FFF7F5FF00F0ABF800F04FF803B4CC
:10027000FFF7F2FF03BC00F057F800000948804781
:1002800009480047FEE7FEE7FEE7FEE7FEE7FEE778
:10029000FEE7FEE7FEE7FEE704480549054A064B90
:1002A0007047000039030008F901000860000220CF
:1002B0006006022060020220600202207047704740
:1002C0007047754600F02CF8AE4605006946534667
:1002D00020F00700854618B020B5FFF7DDFFBDE828
:1002E00020404FF000064FF000074FF000084FF09D
:1002F000000BAC46ACE8C009ACE8C009ACE8C009EA
:10030000ACE8C00921F007018D46704710B50446DE
:10031000AFF300802046BDE81040FFF7A8BF000003
:10032000004870470000022001491820ABBEFEE7DC
:1003300026000200704700004EF68851CEF2000100
:10034000086840F4700008604EF60851CEF20001D3
:100350004FF000600860704780B582B001900020C7
:100360000090FFE700980199884209D2FFE74FF417
:100370007A5000F009F8FFE7009801300090F1E7AB
:1003800002B080BD0000000081B0009000980138EC
:100390004EF21401CEF2000108604EF21801CEF2C6
:1003A000000100200860FFE74EF21000CEF20000CE
:1003B0000068C003002801D4FFE7F5E701B07047EB
:1003C00080B584B00020039043F63001C4F20201EE
:1003D000086840F00200086040F20041C4F20201E7
:1003E000086820F003000860086840F00100086019
:1003F00040F20441C4F20201086820F001000860E4
:1004000040F20841C4F20201086840F003000860AD
:1004100040F20C41C4F20201086820F003000860B9
:100420004EF21401CEF200016FF07F4008604EF2F0
:100430001001CEF2000105200860FFE740F21441F0
:10044000C4F202010191086840F0010008606420D4
:100450000290FFF781FF019A0298116821F00101D3
:100460001160FFF779FFE9E7F1EE100A4FF6FF712F
:10047000C0F2C03120EA010040F04070E1EE100A05
:10048000704700009404000800000220600600008D
:04049000340200082A
:040000050800027D70
:00000001FF
