:020000040800F2
:10000000600600204902000851020008530200085F
:1000100055020008570200085902000800000000BD
:100020000000000000000000000000005B0200086B
:100030005D020008000000005F0200086102000885
:1000400063020008630200086302000863020008FC
:1000500063020008630200086302000863020008EC
:1000600063020008630200086302000863020008DC
:1000700063020008630200086302000863020008CC
:100080006302000863020008630200080000000029
:1000900000000000000000000000000063020008F3
:1000A000630200086302000863020008630200089C
:1000B000630200086302000863020008630200088C
:1000C000630200086302000863020008630200087C
:1000D00063020008630200086302000800000000D9
:1000E00063020008630200086302000800000000C9
:1000F0000000000000000000000000006302000893
:1001000000000000630200086302000863020008A8
:1001100000000000000000000000000000000000DF
:10012000630200086302000863020008630200081B
:100130006302000800000000000000000000000052
:100140000000000000000000000000006302000842
:1001500063020008630200086302000863020008EB
:1001600063020008630200080000000000000000B5
:10017000000000000000000000000000000000007F
:100180000000000063020008000000000000000002
:10019000630200086302000800F002F800F044F86F
:1001A00014A696E8000CB244B344DA4501D100F03D
:1001B0003BF8BAE80F000FA696E83000A5EB04055F
:1001C00004EB0607AAEB0704A7F101074FEA151590
:1001D0004FEA3414A4F10104AC4201D300F024F836
:1001E00013F0010F18BFFB1A43F0010300F001F8F0
:1001F000DBE7184748020000580200007047000083
:100200000023002400250026103A28BF78C1FBD81F
:10021000520728BF30C148BF0B6070471FB500F0C0
:10022000FFF81FBD10B510BD00F031F81146FFF703
:10023000F5FF00F083F800F04FF803B4FFF7F2FF8A
:1002400003BC00F057F80000094880470948004700
:10025000FEE7FEE7FEE7FEE7FEE7FEE7FEE7FEE776
:10026000FEE7FEE704480549054A064B70470000D3
:1002700005030008990100086000002060060020C6
:10028000600200206002002070477047704775468A
:1002900000F02CF8AE4605006946534620F00700F2
:1002A000854618B020B5FFF7DDFFBDE820404FF0D0
:1002B00000064FF000074FF000084FF0000BAC466F
:1002C000ACE8C009ACE8C009ACE8C009ACE8C009BA
:1002D00021F007018D46704710B50446AFF300804A
:1002E0002046BDE81040FFF7A8BF00000048704757
:1002F0000000002001491820ABBEFEE726000200E6
:10030000704700004EF68851CEF20001086840F4B4
:10031000700008607047000082B0019000200090DB
:10032000FFE700980199884205D2FFE7FFE70098B0
:1003300001300090F5E702B07047000080B584B04E
:100340000020039043F63001C4F20201086840F037
:1003500001000860086840F0040008600021C4F251
:100360000201086820F44060086040F60002C4F210
:100370000202106820F040601060086840F480605D
:1003800008600421C4F20201086820F0200008601F
:100390000821C4F20201086840F44060086040F699
:1003A0000801C4F20201086840F0406008600C21B6
:1003B000C4F20201086820F44060086040F60C01B5
:1003C000C4F20201086820F040600860086840F04C
:1003D00080600860FFE740F61000C4F20200006889
:1003E00000F400510020B0EB513F18D1FFE7142179
:1003F000C4F202010191086840F02000086044F254
:100400004020C0F20F000290FFF786FF019A029889
:10041000116821F020011160FFF77EFFFFE7DAE7A6
:10042000F1EE100A4FF6FF71C0F2C03120EA010070
:1004300040F04070E1EE100A704700004C040008E4
:0C04400000000020600600000002000820
:0400000508000249A4
:00000001FF
